{
  "contractName": "User",
  "abi": [
    {
      "anonymous": false,
      "inputs": [
        {
          "indexed": true,
          "internalType": "address",
          "name": "userAddress",
          "type": "address"
        },
        {
          "indexed": false,
          "internalType": "uint256",
          "name": "index",
          "type": "uint256"
        },
        {
          "indexed": false,
          "internalType": "string",
          "name": "name",
          "type": "string"
        },
        {
          "indexed": false,
          "internalType": "bytes32",
          "name": "email",
          "type": "bytes32"
        },
        {
          "indexed": false,
          "internalType": "uint256",
          "name": "age",
          "type": "uint256"
        }
      ],
      "name": "CreateUser",
      "type": "event"
    },
    {
      "anonymous": false,
      "inputs": [
        {
          "indexed": true,
          "internalType": "address",
          "name": "userAddress",
          "type": "address"
        },
        {
          "indexed": false,
          "internalType": "uint256",
          "name": "index",
          "type": "uint256"
        },
        {
          "indexed": false,
          "internalType": "string",
          "name": "name",
          "type": "string"
        },
        {
          "indexed": false,
          "internalType": "bytes32",
          "name": "email",
          "type": "bytes32"
        },
        {
          "indexed": false,
          "internalType": "uint256",
          "name": "age",
          "type": "uint256"
        }
      ],
      "name": "UpdateUser",
      "type": "event"
    },
    {
      "constant": true,
      "inputs": [
        {
          "internalType": "address",
          "name": "userAddress",
          "type": "address"
        }
      ],
      "name": "checkUser",
      "outputs": [
        {
          "internalType": "bool",
          "name": "isUser",
          "type": "bool"
        }
      ],
      "payable": false,
      "stateMutability": "view",
      "type": "function"
    },
    {
      "constant": false,
      "inputs": [
        {
          "internalType": "address",
          "name": "userAddress",
          "type": "address"
        },
        {
          "internalType": "string",
          "name": "name",
          "type": "string"
        },
        {
          "internalType": "bytes32",
          "name": "userEmail",
          "type": "bytes32"
        },
        {
          "internalType": "uint256",
          "name": "userAge",
          "type": "uint256"
        }
      ],
      "name": "addUser",
      "outputs": [
        {
          "internalType": "bool",
          "name": "success",
          "type": "bool"
        }
      ],
      "payable": false,
      "stateMutability": "nonpayable",
      "type": "function"
    },
    {
      "constant": true,
      "inputs": [
        {
          "internalType": "address",
          "name": "userAddress",
          "type": "address"
        }
      ],
      "name": "fetchUser",
      "outputs": [
        {
          "internalType": "string",
          "name": "name",
          "type": "string"
        },
        {
          "internalType": "bytes32",
          "name": "email",
          "type": "bytes32"
        },
        {
          "internalType": "uint256",
          "name": "age",
          "type": "uint256"
        }
      ],
      "payable": false,
      "stateMutability": "view",
      "type": "function"
    },
    {
      "constant": true,
      "inputs": [],
      "name": "getUserCount",
      "outputs": [
        {
          "internalType": "uint256",
          "name": "count",
          "type": "uint256"
        }
      ],
      "payable": false,
      "stateMutability": "view",
      "type": "function"
    },
    {
      "constant": false,
      "inputs": [
        {
          "internalType": "address",
          "name": "userAddress",
          "type": "address"
        },
        {
          "internalType": "bytes32",
          "name": "email",
          "type": "bytes32"
        }
      ],
      "name": "updateUserEmail",
      "outputs": [
        {
          "internalType": "bool",
          "name": "success",
          "type": "bool"
        }
      ],
      "payable": false,
      "stateMutability": "nonpayable",
      "type": "function"
    },
    {
      "constant": false,
      "inputs": [
        {
          "internalType": "address",
          "name": "userAddress",
          "type": "address"
        },
        {
          "internalType": "uint256",
          "name": "age",
          "type": "uint256"
        }
      ],
      "name": "updateUserAge",
      "outputs": [
        {
          "internalType": "bool",
          "name": "success",
          "type": "bool"
        }
      ],
      "payable": false,
      "stateMutability": "nonpayable",
      "type": "function"
    },
    {
      "constant": true,
      "inputs": [
        {
          "internalType": "uint256",
          "name": "index",
          "type": "uint256"
        }
      ],
      "name": "getUserByIndex",
      "outputs": [
        {
          "internalType": "address",
          "name": "userAddress",
          "type": "address"
        }
      ],
      "payable": false,
      "stateMutability": "view",
      "type": "function"
    }
  ],
  "bytecode": "0x608060405234801561001057600080fd5b50610924806100206000396000f3fe608060405234801561001057600080fd5b506004361061007d5760003560e01c8063ad08c7da1161005b578063ad08c7da146101aa578063b5cb15f7146102b1578063be6f0ea2146102cf578063ff5d32fe1461039a5761007d565b80631e9d48cf146100825780632e071db3146100de57806381f1d75c14610144575b600080fd5b6100c46004803603602081101561009857600080fd5b81019080803573ffffffffffffffffffffffffffffffffffffffff169060200190929190505050610408565b604051808215151515815260200191505060405180910390f35b61012a600480360360408110156100f457600080fd5b81019080803573ffffffffffffffffffffffffffffffffffffffff169060200190929190803590602001909291905050506104cf565b604051808215151515815260200191505060405180910390f35b6101906004803603604081101561015a57600080fd5b81019080803573ffffffffffffffffffffffffffffffffffffffff16906020019092919080359060200190929190505050610534565b604051808215151515815260200191505060405180910390f35b610297600480360360808110156101c057600080fd5b81019080803573ffffffffffffffffffffffffffffffffffffffff169060200190929190803590602001906401000000008111156101fd57600080fd5b82018360208201111561020f57600080fd5b8035906020019184600183028401116401000000008311171561023157600080fd5b91908080601f016020809104026020016040519081016040528093929190818152602001838380828437600081840152601f19601f8201169050808301925050505050505091929192908035906020019092919080359060200190929190505050610599565b604051808215151515815260200191505060405180910390f35b6102b9610689565b6040518082815260200191505060405180910390f35b610311600480360360208110156102e557600080fd5b81019080803573ffffffffffffffffffffffffffffffffffffffff169060200190929190505050610696565b6040518080602001848152602001838152602001828103825285818151815260200191508051906020019080838360005b8381101561035d578082015181840152602081019050610342565b50505050905090810190601f16801561038a5780820380516001836020036101000a031916815260200191505b5094505050505060405180910390f35b6103c6600480360360208110156103b057600080fd5b8101908080359060200190929190505050610809565b604051808273ffffffffffffffffffffffffffffffffffffffff1673ffffffffffffffffffffffffffffffffffffffff16815260200191505060405180910390f35b600080600180549050141561042057600090506104ca565b8173ffffffffffffffffffffffffffffffffffffffff1660016000808573ffffffffffffffffffffffffffffffffffffffff1673ffffffffffffffffffffffffffffffffffffffff168152602001908152602001600020600001548154811061048557fe5b9060005260206000200160009054906101000a900473ffffffffffffffffffffffffffffffffffffffff1673ffffffffffffffffffffffffffffffffffffffff161490505b919050565b60006104da83610408565b156104e457600080fd5b816000808573ffffffffffffffffffffffffffffffffffffffff1673ffffffffffffffffffffffffffffffffffffffff168152602001908152602001600020600201819055506001905092915050565b600061053f83610408565b1561054957600080fd5b816000808573ffffffffffffffffffffffffffffffffffffffff1673ffffffffffffffffffffffffffffffffffffffff168152602001908152602001600020600301819055506001905092915050565b6000836000808773ffffffffffffffffffffffffffffffffffffffff1673ffffffffffffffffffffffffffffffffffffffff16815260200190815260200160002060010190805190602001906105f092919061084a565b50826000808773ffffffffffffffffffffffffffffffffffffffff1673ffffffffffffffffffffffffffffffffffffffff16815260200190815260200160002060030181905550816000808773ffffffffffffffffffffffffffffffffffffffff1673ffffffffffffffffffffffffffffffffffffffff1681526020019081526020016000206002018190555060019050949350505050565b6000600180549050905090565b60606000806000808573ffffffffffffffffffffffffffffffffffffffff1673ffffffffffffffffffffffffffffffffffffffff1681526020019081526020016000206001016000808673ffffffffffffffffffffffffffffffffffffffff1673ffffffffffffffffffffffffffffffffffffffff168152602001908152602001600020600301546000808773ffffffffffffffffffffffffffffffffffffffff1673ffffffffffffffffffffffffffffffffffffffff16815260200190815260200160002060020154828054600181600116156101000203166002900480601f0160208091040260200160405190810160405280929190818152602001828054600181600116156101000203166002900480156107f55780601f106107ca576101008083540402835291602001916107f5565b820191906000526020600020905b8154815290600101906020018083116107d857829003601f168201915b505050505092509250925092509193909250565b60006001828154811061081857fe5b9060005260206000200160009054906101000a900473ffffffffffffffffffffffffffffffffffffffff169050919050565b828054600181600116156101000203166002900490600052602060002090601f016020900481019282601f1061088b57805160ff19168380011785556108b9565b828001600101855582156108b9579182015b828111156108b857825182559160200191906001019061089d565b5b5090506108c691906108ca565b5090565b6108ec91905b808211156108e85760008160009055506001016108d0565b5090565b9056fea265627a7a7231582006e89dce5aab8a97fcbc6faea8669f3d49b7aa9cbdfc7253787cb2dc5a497b8364736f6c63430005100032",
  "source": "// SPDX-License-Identifier: MIT\r\npragma solidity >=0.4.22 <0.9.0;\r\ncontract User {\r\n\r\n    struct UserModel {\r\n        uint index;\r\n        string name;\r\n        uint age;\r\n        bytes32 email;\r\n    }\r\n\r\n    event CreateUser(\r\n        address indexed userAddress,\r\n        uint index, \r\n        string name,\r\n        bytes32 email, \r\n        uint age\r\n    );\r\n\r\n    event UpdateUser(\r\n        address indexed userAddress, \r\n        uint index,\r\n        string name,\r\n        bytes32 email, \r\n        uint age\r\n    );\r\n\r\n    //store the data in the form of key-value pairs (users)\r\n    mapping(address => UserModel) private users;\r\n    address[] private userIndex;\r\n\r\n    function checkUser(address userAddress) public view returns(bool isUser) {\r\n        if(userIndex.length == 0) return false;\r\n\r\n        return (userIndex[users[userAddress].index] == userAddress);\r\n    }\r\n\r\n    //Create a new user\r\n    function addUser(\r\n        address userAddress,\r\n        string memory name,\r\n        bytes32 userEmail,\r\n        uint userAge\r\n    ) public returns (bool success){\r\n        users[userAddress].name = name;\r\n        users[userAddress].email = userEmail;\r\n        users[userAddress].age = userAge;\r\n        return true;\r\n    }\r\n\r\n    //Fetch user\r\n    function fetchUser(address userAddress) public view returns(string memory name, bytes32 email, uint age){\r\n        return (\r\n            users[userAddress].name, \r\n            users[userAddress].email, \r\n            users[userAddress].age\r\n        );\r\n    }\r\n\r\n    //count total number of users\r\n    function getUserCount() public view returns(uint count) {\r\n        return userIndex.length;\r\n    }\r\n\r\n    //Update a user\r\n    function updateUserEmail(\r\n        address userAddress,\r\n        bytes32 email\r\n    ) public returns (bool success) {\r\n        require(!checkUser(userAddress));\r\n        users[userAddress].email = email;\r\n        return true;\r\n    }\r\n\r\n    function updateUserAge(address userAddress, uint age) public returns (bool success) {\r\n        require(!checkUser(userAddress));\r\n        users[userAddress].age = age;\r\n        return true;\r\n    }\r\n\r\n    function getUserByIndex(uint index) public view returns(address userAddress){\r\n        return userIndex[index];\r\n    }\r\n\r\n}",
  "sourcePath": "C:/Users/HP/OneDrive/Documents/work/dapp-crud/contracts/User.sol",
  "compiler": {
    "name": "solc",
    "version": "0.5.16+commit.9c3226ce.Emscripten.clang"
  },
  "schemaVersion": "3.4.1",
  "updatedAt": "2021-08-07T23:04:20.503Z",
  "networkType": "ethereum",
  "devdoc": {
    "methods": {}
  },
  "userdoc": {
    "methods": {}
  }
}